:10010000753003753104753205753306753407751E
:100110003508753609716712027A12012E120181B3
:100120001202491202421203871201E580EF120205
:100130007F74D01202CC74001202CCE530F541126B
:1001400002CC7540018531411202CC754002E53286
:10015000F5411202CC754003E533F5411202CC752E
:100160004004E534F5411202CC754005E535F54112
:100170001202CC754006E536F5411202CC1202910E
:100180002212027F74D01202CC74001202CC74D1FD
:100190001202CC120291754000120311F5301202C6
:1001A00091754001120311F531120291754002124E
:1001B0000311F532120291754003120311F5331247
:1001C0000291754004120311F53412029175400535
:1001D000120311F535120291754006120311854183
:1001E00036120291229003EEE532120232743A1274
:1001F00003A6E531120232743A1203A6E530120268
:100200003274201203A612025074201203A6900327
:10021000D2E5331202681203939003EEE534120222
:1002200032742F1203A6E535120232742F1203A680
:10023000E536FA54F0C4931203A6EA540F9312035E
:10024000A622E532541FF54522E5325420F5372227
:10025000E537B4000874611203A6020262747012DA
:1002600003A6746D1203A6229003D2931203A6A3D1
:10027000E01203A6A3931203A622D291D29022D217
:1002800091000000D290000000C290000000C291D6
:1002900022C291000000D290000000D29100000024
:1002A0002212027F74D01202CC74001202CC7400AD
:1002B0001202CC120291227A08C2900000003392FE
:1002C00091000000D290000000DAEE22C291C290AC
:1002D00074D0120301D291D2902091F0C290E540E7
:1002E000120301D291D2902091E2C290E541120313
:1002F00001D291D2902091D4C291C290D290D29149
:1003000022C0027A08339291D290C290DAF7D002DA
:1003100022C291C29074D0120301D291D290209146
:10032000F0C290E540120301D291D2902091E2C236
:1003300090D290D291C291C29074D1120301D29105
:10034000D2902091CCC290120355D291D290C290FB
:10035000D290D29122C0027A08D290A291C2903358
:10036000DAF7F541D0022271C971C9759020C2B483
:10037000D2B671C9C2B674287199740C7199740699
:1003800071997401719922740212039922740112F5
:1003900003992274C012039922C2B471B3E5387173
:1003A000BEE53971BE22D2B471B3E53871BEE5390C
:1003B00071BE22F5385338F0C454F0F53922F59067
:1003C000D2B671C9C2B671C9227810790FD9FED8D8
:1003D000FA224D4F4E0054554500574544005448AD
:1003E0005500465249005341540053554E00303198
:0803F000323334353637383959
:00000001FF
