:1001000075890175730190042712025771BC1201A1
:100110001F12023512022E1203DC12019E80EF1212
:10012000025774D012026F740012026FE5D11202EE
:100130006F7562001202B485636412026575620114
:100140001202B48563651202657562021202B485FB
:1001500063661202657562031202B4856367120258
:10016000657562041202B4856368120265756205E2
:100170001202B48563691202657562061202B485C3
:10018000636A1202657562081202B4856370120216
:10019000657562091202B485637212026522E57404
:1001A00054F0C4931203FBE574540F931203FB74D1
:1001B0003A1203FBE56554F0C4931203FBE5655462
:1001C0000F931203FB743A1203FBE56454F0C493DB
:1001D0001203FBE564540F931203FB12023C7420DC
:1001E0001203FBE5671202F81203E8E56954F0C454
:1001F000931203FBE569540F931203FB742F120350
:10020000FBE56854F0C4931203FBE568540F9312A6
:1002100003FB742F1203FBE56A54F0C4931203FB33
:10022000E56A540F931203FB74201203FB22E56668
:10023000541FF57422E5665420F52322E523B4000B
:100240000B74411203FB744D1203FB227450120312
:10025000FB744D1203FB22C290C291D290D2910046
:100260000000C29122C291D290000000D29122C21D
:1002700091C29074D01202A4D291D2902091F0C277
:1002800090E5621202A4D291D2902091E2C290E550
:10029000631202A4D291D2902091D4C291C290D282
:1002A00090D29122C0027A08339291D290C290DA11
:1002B000F7D00222C291C29074D01202A4D291D27D
:1002C000902091F0C290E5621202A4D291D29020C7
:1002D00091E2C290D290D291C291C29074D1120296
:1002E000A4D291D2902091CCC2901203AAD291D2E2
:1002F00090C290D290D29122B4010412032B22B466
:10030000020412033B22B4030412035022B4040477
:1003100012036022B4050412037A22B40604120305
:100320008A22B4070412039A220022744D1203FB9E
:10033000744F1203FB744E1203FB2274541203FB1E
:1003400074551203FB74451203FB74531203FB2212
:1003500074571203FB74451203FB74441203FB220F
:1003600074541203FB74481203FB74551203FB749C
:10037000521203FB74531203FB2274461203FB74E4
:10038000521203FB74491203FB2274531203FB74D1
:10039000411203FB74541203FB2274531203FB74C7
:1003A000551203FB744E1203FB22C0027A08D2904E
:1003B000A291C29033DAF7F563D00222911E911E0A
:1003C000759020C2B4D2B6911EC2B6742871EE7474
:1003D0000C71EE740671EE740171EE227402120358
:1003E000EE2274011203EE2274C01203EE22C2B494
:1003F0009108E51F9113E520911322D2B49108E5ED
:100400001F9113E520911322F51F531FF0C454F0E0
:10041000F52022F590D2B6911EC2B6911E22781018
:10042000790FD9FED8FA22303132333435363738A5
:010430003992
:00000001FF
