:06000000020016020024BC
:1000130002005575900075A00075A885758901804B
:10002300FEBF0511780279FFF59011C723D9F9D8DE
:10003300F57F04801C400D78FFF59011C703D8F9B4
:100043007F05800D746678FFF59011C703D8F97F9B
:100053000632BF050AD2A2C2A311D0D2A3804C405C
:10006300267B1E758A70758CBC11BB758A80758C56
:10007300FB11BBDBEE758A25758CFA11BB758AD92A
:10008300758CBD11BB80247B1E758A70758CBC1169
:10009300AF758A80758CFB11AFDBEE758A25758C85
:1000A300FA11AF758AD9758CBD11AF32D28C308DF0
:1000B300FDC28CC28DB2A022D28C308DFDC28CC207
:1000C3008DB2A1227A4B7C4BDCFEDAFA227C0A7ECB
:0A00D300FF7DFFDDFEDEFADCF62201
:00000001FF
