:03000000020030CB
:10002B00B2A6C2CF3275817075D000C2B0C2B1C258
:10003B00B2D2B3D2A7C2A3C2A4C2A57400F561F514
:10004B00621203BD1204199004A01203AE9004B106
:10005B0074C01203E61204191203AED2B4D2B5C2A5
:10006B00B2D2B1758915758800758A00758C003010
:10007B00B4FD20B4FDD28C780F758BFB758D0FD230
:10008B008E308FFDC28FC28ED8EFC28C1203BD9003
:10009B0004C11203AE74C01203E6120419E4F9F89A
:1000AB00FAFBFDAB8CAA8AC003C0021203009004BA
:1000BB00C91203AEE58C700FE58A75F032B5F0000E
:1000CB005005D2B00200D4C2B01203BD9004CC12C2
:1000DB0003AE74C01203E6120419E4C3E58A94322A
:1000EB00FAE58C9400FB50077432958AFA7B007DFD
:1000FB00001203009004C91203AE758B00758D00BE
:10010B0030B4FD20B4FDD28E30B4028009308FF8AC
:10011B000561C28F80F2C28E858D58858B59758B88
:10012B0000758D0020B4FD30B4FDD28E20B402805A
:10013B0009308FF80562C28F80F2C28E858D5A8589
:10014B008B5BAE5AAF5BAC58AD5912042A89668AE9
:10015B00658B64C3E564948AE5659402E566940057
:10016B00402BAA64AB65AC66786479007400FEFF23
:10017B00FD1204368E648F65AA5BAB5AAC62A86421
:10018B00A9657400FEFFFD1204360201BAC3AE5A14
:10019B00AF5B7C007D641204708B5B8A5AAA5BABED
:1001AB005A7C00A864A9657400FEFFFD1204368E0C
:1001BB006F8F6E856F67E56F9464400475675FC3DF
:1001CB001203BD9004D21203AE74C01203E61204E4
:1001DB0019E4E567120379C2B1D2B27589517588FA
:1001EB0000758B00758D0030B5FD20B5FDD28E7876
:1001FB000F758AFB758C0FD28C308DFDC28DC28C26
:10020B00D8EFC28E1203BD9004D61203AE74C01287
:10021B0003E6120419E4F9F8FAFBFDAB8DAA8BC0C7
:10022B0003C0021203009004C91203AEC2A3C2A4FE
:10023B00C2A5C3D000D001D002D003E98BF0B5F03A
:10024B000BE88AF0B5F011D2A402026A4005D2A5E0
:10025B0002026AD2A302026A40F9D2A502026AE83C
:10026B002AF8E93BF9C000C0011203BD9004DE126D
:10027B0003AE74C01203E6120419D003D002C002FD
:10028B00C0031203009004C91203AED001D0007A50
:10029B003A7B107C0E7D007E007F00120436C3AAD1
:1002AB006FAB6E7C007D007E007F007802790012C0
:1002BB000436C3C28C75C80075C90074FF956FF501
:1002CB006F856FCAC374FF956EF56E856ECBC37564
:1002DB00A8A0D2CA30B3030202ED20A7F7C2CA020C
:1002EB0002DF758B00758D00758A00758C00C28ED0
:1002FB00C28C02006A75510075520075530075541B
:10030B00007555007900780A7C0012043685635518
:10031B00AB07AA067900780A7C0012043685635471
:10032B00AB07AA067900780A7C0012043685635362
:10033B00AB07AA067900780A7C007D00120436858B
:10034B006352850651E4E55144301203F7E4E5525C
:10035B0044301203F7E4E55344301203F7E4E55459
:10036B0044301203F7E4E55544301203F72275517C
:10037B000075520075530075540075550075F00AE1
:10038B008485F05375F00A8485F052F551E551449C
:10039B00301203F7E55244301203F7E553443012A1
:1003AB0003F722E493600A1203F7120419A3020362
:1003BB00AE2274381203E6120419740E1203E612FD
:1003CB00041974011203E612041974061203E612DF
:1003DB00041974801203E612041922120408F59012
:1003EB00C2A0C2A1D2A2120419C2A222120408F501
:1003FB0090D2A0C2A1D2A2120419C2A222D297C239
:10040B00A0D2A1C2A2120419D2A22097F6227B324B
:10041B007CFFDCFEDBFA227D64120419DDFB22EF8C
:10042B002DFBEE3CFAE5623561F922E4C3FEFFF5E4
:10043B0063C3EA75F00AB5F0005003EAF563C3EA4B
:10044B0098FAEB99FBEC9DFC75F0FEB5F0030204FA
:10045B006B500D0EEE75F000B5F0010FC302043CAE
:10046B008E6F8F6E22ED8FF0A4AAF0FBED8EF0A4B1
:10047B002AFAE5F03400F974003400F8EC8FF0A49C
:10048B002AFAE5F039F9740038F8EC8EF0A429F962
:10049B00E5F038F822202020202047524F55502DD0
:1004AB003220202020003331322C31302C31382CAB
:1004BB0033362C343400465245512D313A00485ACC
:1004CB0000444946463A0044433A00465245512DB2
:0D04DB00323A004E455720465245513A0036
:00000001FF
