:03000000020030CB
:10003000113C11431150119D11CE80FE78007900C2
:100040007A002275800075900075A00075B00022BE
:1000500011E075B020C2A0D2A111E0C2A178281190
:100060006E780E116E7806116E7801116E2211886D
:10007000C2A0A8301194A8311194221188D2A0A84E
:10008000301194A831119422E8F5305330F0C45463
:10009000F0F5312288B0D2A111E0C2A122788311FB
:1000A0006E7848117B7845117B784C117B784C1128
:1000B0007B784F117B7820117B7857117B784F111B
:1000C0007B7852117B784C117B7844117B2278C469
:1000D000116E900200E493F86005117BA380F62274
:1000E000753E02753D64753CFAD53CFDD53DF7D5AE
:0300F0003EF122BC
:0A0200004C434420342042495400CE
:00000001FF
