:02000000801E60
:10001B00DA02D20232319E74333107319E7432319F
:10002B0007319E74283107740C310774063107743D
:10003B00013107319E9001D731937401310774D090
:10004B003107744C31157455311574443115744F97
:10005B003115758912758CFA758AFAD28CD2AFD29A
:10006B00AB753C5575800FA85C760008B880FAA874
:10007B0031760008B839FA1201301201AE300400A3
:10008B00E539B40602D200A8307E01313011F9E512
:10009B00397F06EFB40002D200316A11D4318D31B1
:1000AB0090317D300004C20080E1314D11F9E5390A
:1000BB007F06EFB40002D200317A11D4318D31902A
:1000CB00317D3000C6C20080E1E6600DE62539F5D2
:1000DB003A11EC30010AA63A2220000122A65C223A
:1000EB0022C3E53A94804003C20122D20122E53CAF
:1000FB0023653AF53C540760F5F53922F590C2A417
:10010B003123C4F590C2A4312322F590D2A431231C
:10011B00C4F590D2A4312322D2A500C2A5312B2243
:10012B007EFFDEFE2274C0310774503115744C31E2
:10013B00157441311574593115744531157452319B
:10014B00152274C0310774433115744F3115744D3A
:10015B003115745031157455311574543115227590
:10016B00800F208104A83180052082F6A83222A8B6
:10017B003522A87B740008E6FFEF5401FF2FB87FF0
:10018B00F522C2A322C2A322E49360063115A30277
:10019B000193227B327CFFDCFEDBFA227D2D319E2C
:1001AB00DDFC22C20431CE3080162083F8748531F9
:1001BB0007E58AC394F9F53925303083FD311522D3
:1001CB00D2042274853107E58A31152257454C43F9
:1001DB004F4D4520544F204C55444F00504C4159E6
:1001EB004552205455524E00434F4D505554455295
:1001FB00205448494E4B00594F552057494E21002A
:0D020B0053454C45435420544F4B454E0085
:00000001FF
