:03000000020030CB
:1000300075900090020075902475801175A0A475CC
:10004000B09051BB75B08051BB75B0F851BB75B065
:100050008251BB75B09251BB75B09951BB75B0B0B0
:1000600051BB75B0A451BB75B0F951BB75B04075AB
:10007000A0F975B09051BB75B08051BB75B0F85107
:10008000BB75B08251BB75B09251BB75B09951BB75
:1000900075B0B051BB75B0A451BB75B0F951BB750B
:1000A000B04075A04075B09051BB75B08051BB7524
:1000B000B0F851BB75B08251BB75B09251BB75B0F1
:1000C0009951BB75B0B051BB75B0A451BB75B0F9B7
:1000D00051BB75B04075901475800C75A00075B05B
:1000E0000075A0A475B09051BB75B08051BB75B0C0
:1000F000F851BB75B08251BB75B09251BB75B099C8
:1001000051BB75B0B051BB75B0A451BB75B0F951BE
:10011000BB75B04075A0F975B09051BB75B08051FA
:10012000BB75B0F851BB75B08251BB75B09251BB75
:1001300075B09951BB75B0B051BB75B0A451BB75CA
:10014000B0F951BB75B04075A04075B09051BB750A
:10015000B08051BB75B0F851BB75B08251BB75B062
:100160009251BB75B09951BB75B0B051BB75B0A47D
:1001700051BB75B0F951BB75B04075900A758024BC
:1001800075A0A475B09051BB75B08051BB75B0F827
:1001900051BB75B08251BB75B09251BB75B09951CE
:1001A000BB75B0B051BB75B0A451BB75B0F951BBB4
:1001B00075B04075A0F975B09051BB75B08051BB5A
:1001C00075B0F851BB75B08251BB75B09251BB751B
:1001D000B09951BB75B0B051BB75B0A451BB75B0EF
:1001E000F951BB75B04075A04075B09051BB75B06A
:1001F0008051BB75B0F851BB75B08251BB75B092E0
:1002000051BB75B09951BB75B0B051BB75B0A4511D
:10021000BB75B0F951BB75B04075902175802275E2
:10022000A0A475B09051BB75B08051BB75B0F851AA
:10023000BB75B08251BB75B09251BB75B09951BBC3
:1002400075B0B051BB75B0A451BB75B0F951BB7559
:10025000B04075A0F975B09051BB75B08051BB75B9
:10026000B0F851BB75B08251BB75B09251BB75B03F
:100270009951BB75B0B051BB75B0A451BB75B0F905
:1002800051BB75B04075A04075B09051BB75B08042
:1002900051BB75B0F851BB75B08251BB75B092516E
:1002A000BB75B09951BB75B0B051BB75B0A451BB13
:1002B00075B0F951BB75B0400200307C327D207EB4
:0802C000FFDEFEDDFADCF62290
:00000001FF
