:100000007580007580291202B275802C30B22C12D6
:1000100002B230B22875802A30B2241202B230B255
:100020002175808930B21E1202B230B21B75804930
:1000300030B2181202B230B21580CE801480600245
:1000400000EA0201320201830201D102021C020213
:10005000611202B275802A1202B27580291202B2B0
:100060007580311202B27580291202BF758021128B
:1000700002BF7580291202BF7580211202BF7580F0
:10008000291202BF7580211202BF7580291202BF9A
:100090007580211202BF7580291202B202002175FB
:1000A000802A1202B27580291202B27580311202C2
:1000B000B27580291202BF7580211202BF75802996
:1000C0001202BF7580211202BF7580291202BF750E
:1000D00080211202BF7580291202BF758021120291
:1000E000BF7580291202B20200211202B275802966
:1000F0001202B27580311202B27580291202BF75E8
:1001000080211202BF7580291202BF758021120260
:10011000BF7580291202BF7580211202BF75802928
:100120001202BF7580211202BF7580291202B2022D
:1001300000217580891202B27580491202B2758061
:10014000291202B27580311202B27580291202BFE3
:100150007580211202BF7580291202BF758021129D
:1001600002BF7580291202BF7580211202BF7580FF
:10017000291202BF7580211202BF7580291202B2B6
:100180000200091202B27580491202B2758029126A
:1001900002B27580311202B27580291202BF7580D9
:1001A000211202BF7580291202BF7580211202BF81
:1001B0007580291202BF7580211202BF7580291235
:1001C00002BF7580211202BF7580291202B202009F
:1001D000097580491202B27580291202B275803108
:1001E0001202B27580291202BF7580211202BF75FA
:1001F00080291202BF7580211202BF758029120268
:10020000BF7580211202BF7580291202BF7580213F
:100210001202BF7580291202B20200091202B275E1
:1002200080291202B27580311202B2758029120241
:10023000BF7580211202BF7580291202BF7580210F
:100240001202BF7580291202BF7580211202BF758C
:1002500080291202BF7580211202BF1202B2020071
:100260000975802C1202B275802A1202B27580299B
:100270001202B27580311202B27580291202BF7566
:1002800080211202BF7580291202BF7580211202DF
:10029000BF7580291202BF7580211202BF758029A7
:1002A0001202BF7580211202BF7580291202B202AC
:1002B0000021781079FA7AFADAFED9FAD8F622789B
:1002C0000479FA7AFADAFED9FAD8F6227F047EFAAD
:0902D0007DFADDFEDEFADFF62204
:00000001FF
