:100000000102758170119651F6518111DE312C512A
:10001000B131A831E5111C514F02000FE557B40072
:1000200010316A403774CC3194744431947557015F
:1000300022D29220920122316A402174CC319474F0
:10004000BE3194317FF554317FF555E555C454F0F8
:10005000FAE55454F0C44AF5567557007557002216
:10006000D294D2932094167B0A51C8DBFC209425AD
:100070007859E6C32408F608E63400F622209315E2
:100080007B0A51C8DBFC20930C7859E6C39408F630
:1000900008E69400F62251B1743011D551C111D542
:1000A00051C811D5742011D5742811B9740C11B927
:1000B000740111B9740611B922C2A0FD54F011D512
:1000C000EDC454F011D522D2A0FD54F011D5EDC4E9
:1000D00054F011D522F580D2A151C8C2A122D291EB
:1000E000D29022D291D29000C29100C29022C291AD
:1000F000D29000D291227A08339291D29000C2908D
:10010000DAF6D291D29000C290227A08E4D291D24B
:100110009000A29133C290DAF422C291D29000C230
:1001200090D29122D291D29000C29022753219754C
:1001300031577530007533027534227535047536C4
:100140002611E374D011F6740011F6E53011F6E5CE
:100150003111F6E53211F6E53311F6E53411F6E525
:100160003511F6E53611F611EE22C29278FAD8FE74
:10017000D2927828D8FE20920578C8D8FE2222791B
:1001800008C29200D2927805D8FEA292137819D8AC
:10019000FED9EE22790813C2927802D8FE929278A4
:1001A0001ED8FED292D9EF2211E374D011F674005A
:1001B00011F611E374D111F6310AF530311A310A12
:1001C000F531311A310AF532311A310AF533311A63
:1001D000310AF534311A310AF535311A310AF5365A
:1001E000312411EE22512C748011B9E532516F7413
:1001F0003A11C7E531516F743A11C7E530516F7448
:100200002011C7513874C011B9E534516F742F11E2
:10021000C7E535516F742F11C7E536516F74201142
:10022000C751DB74CE11B9740011C722E532541FD7
:10023000B40D02940CF53922E53230E50974411110
:10024000C7744D11C722745011C7744D11C7227461
:100250008C11B9E5565163C4516F74DF11C77443F3
:1002600011C72275F00A84F8E5F0C454F04822F56D
:100270003854F0C4243011C7E538540F243011C766
:100280002290031F519674C011B990032F519651BB
:10029000BA740111B922E493600511C7A380F72253
:1002A0007864D8FE22791451A0D9FC227FC8DFFEE1
:1002B000227EC87FFADFFEDEFA227D3251B1DDFCFC
:1002C000227E0551C8DEFC22758A17758CFCD28C03
:1002D000308DFDC28CC28D22DFFE2290033FA833F9
:1002E000B800028007E493A370FBD8F4E4936005A0
:1002F00011C7A380F722744011B9740411C7740E9A
:1003000011C7740E11C7740E11C7741F11C774047E
:1003100011C7740011C7740411C7748011B9222069
:1003200020202041543839533532202020200052DB
:1003300045414C2054494D4520434C4F434B004DC3
:100340004F4E00545545005745440054485500460B
:0B0350005249005341540053554E0029
:00000001FF
