:03000000020100FA
:1001000075A0FF758CFF758AFE758901759000E5F5
:10011000A0540FB40FF6E5A0540FB40F0280F7E51A
:10012000A0540FB40F0280EE7590FEE5A0540FB4FA
:100130000F217590FDE5A0540FB40F1C7590FBE5E1
:10014000A0540FB40F177590F7E5A0540FB40F1219
:10015000020116900300800F900304800A900308A8
:10016000800590030C8000135003A380FAE493F5FC
:040170008002010CFC
:10030000000102030405060708090A0B0C0D0E0F75
:10031000AE00D28C308DFDC28CC28DDEF52280FE07
:00000001FF
