:1000000001023103116D7401119831147484119837
:100010007438119C7430119C7435119C7431119C8E
:100020007420119C7449119C7432119C7443119C6E
:1000300074C21198744C119C7443119C7444119CAB
:100040007420119C7449119C744E119C7454119C21
:100050007445119C7452119C7446119C7441119CFE
:100060007443119C7445119C311D020006743011BB
:10007000C2310D743011C2310D743011C2310D74A2
:100080002011C2310D74281198740C119874061146
:100090009874011198310D22C311A022D311A0220E
:1000A000FF54F011ACEFC454F011AC2250024401E3
:1000B0004408FEEE440411D43108EE54FB11D4314F
:1000C00008224408FEEE440411D43108EE54FB111A
:1000D000D4310822FD11E1744E11F1ED11F111EA54
:1000E00022D2A1D2A0C2A1C2A022C2A1D2A0D2A1DA
:1000F000227C083392A1D2A0C2A0DCF7D2A1D2A068
:10010000C2A022D2A1D2A0227864D8FE22791431D2
:1001100008D9FC227EC87FFADFFEDEFA227D32316A
:0401200014DDFC22CC
:00000001FF
