:03000000020030CB
:03000B0002010FE0
:03001B00020130AF
:1000300075B00075900075A0FF7580FF753600756E
:10004000350075370075321C75332375342712015E
:100050006F7880319390020011E31200F01200FAE1
:10006000788B3193C2B3D2B3E5A0F530315B118206
:10007000120076020060E53560047537322275376C
:100080000A22E5309534500FE5309533500CE530B9
:10009000953240090200A00200BF0200AF0200CF6B
:1000A000D2B4C2B1D2B7C28E9002181200DF22D2EF
:1000B000B4C2B1753500D28E9002111200DF22C297
:1000C000B4D2B17535FFD28E90020A1200DF22C27F
:1000D000B4C2B1753500D28E90021F1200DF2278B3
:1000E000C03193E493F860073188319EA380F422F5
:1000F000758900D2AFD2A9D28C22758910758B0078
:10010000758D00D2A9D28EC28DC28F75A88822208B
:10011000D50DD2D5D2B685378C758A00C28D32C244
:10012000D5C2B674FFC39537F58C758A00C28D327F
:10013000C28EC28CC0070536AF36E5356004B2B753
:10014000800CBF0302C2B7BF0404D2B7C236758D9C
:10015000C0758B00D28EC28FD007327F0AE5308FF8
:10016000F0842430F83188E5F02430F831882278A2
:10017000383193780E319378013193740631937846
:10018000803193743C3193228890D2B0D2B2319EA8
:10019000C2B2228890C2B0D2B2319EC2B222753EA3
:1001A00002753D32753CC8D53CFDD53DF7D53EF1D5
:0101B000222C
:1002000054656D702E2843293A0044414E474552AB
:1002100000484947482020004E4F524D414C004C69
:060220004F5720202000D2
:00000001FF
