:10000000FF3F065B4F666D7D077F6F75140A75189D
:100010000475309675FFDE75FFAD75B21475E1009D
:1000200075E34075E26475A40074FF75A5FF75A6BD
:10003000FF75B50CC225C226F585441054DFF58541
:10004000C222C223118E11E811CE11FE1196117E2B
:1000500011CE75140A11AE11E811FED514F780EC1B
:10006000202208E58054047003D22522C2252220D4
:100070002308E58054087003D22622C22622E92AEA
:100080009518940A600122E5856430F5852279058A
:100090007A019000002220222620230122E530242C
:1000A000324005F530C22322753096C223221160FA
:1000B000202506116F20260422D22222D22322C21A
:1000C000220518E51854F96001227518042211E47C
:1000D00011E293F59011E21411E0600122A91822B7
:1000E000F922E9229000002211E411F993F5A01100
:1000F000F91411F7600522FA22EA227A0A22AC30BA
:0B0100007DFF7F01DFFEDDFADCF62250
:00000001FF
