:0300000002001EDD
:03000B000201FBF4
:10001B0002020F7580017581507E147589517F0026
:10002B00D2A9D2ABD2AFC23F12021B7480513A900D
:10003B000310511174C212023A758C3C758ABA7E48
:10004B00147F00758D00758B00D28CD28E303FFDE6
:10005B00C23F8F32858D31858B3012015512017164
:10006B0020800612010102003F12007A02003FE5D8
:10007B00477016E5467012E545700BE5447007E5D1
:10008B004370030200E00200BA900300E5479312AD
:10009B000234E54693120234742E120234E5459372
:1000AB00120234E544931202349003320200F890AA
:1000BB000300E54593120234E54493120234E54301
:1000CB0093120234742E120234E5429312023490CE
:1000DB00032B0200F8900300E54293120234E54132
:1000EB0093120234E54093120234900321742012D0
:1000FB00023412021122900300E54793120234904E
:10010B000300E54693120234900300E54593120277
:10011B0034900300E54493120234900300E54393BB
:10012B00120234900300E54293120234900300E56F
:10013B004193120234900300E54093120234900372
:10014B00217420120234120211221201F1753401B2
:10015B00783375F004E6B4000418D5F0F87408A4ED
:10016B00F53EB4004022E53C12019E854847854987
:10017B0046E53B12019E854845854944E53A120107
:10018B009E854843854942E53912019E8548418544
:10019B00494022900300FC54F0C4F548EC540FF591
:1001AB0049221201BC1201CB50031201D9D53EF2E8
:1001BB0022783475F004C3E636D4F608D5F0F8226D
:1001CB00783375F004C3E613F618D5F0F9227839B5
:1001DB0075F0047934C3E637D4F60809D5F0F7E5A2
:1001EB003C3400F53C227909E47834F608D9FC223A
:1001FB00DE0BC28EC28FC28CC28DD23F32758C3C4D
:10020B00758ABA320F32E49360055134A380F7221A
:10021B007438513A740E513A7401513A7406513A8A
:10022B007480513A743C513A22F590D2A08004F577
:10023B0090C2A0D2A27D015147C2A2227AE6000051
:05024B00DAFCDDF822E1
:10030000303132333435363738394142434445464B
:10031000202D467265712E20436F756E7465722DA7
:1003200000487A20202020202020004B487A2020DE
:0903300020004D487A2020200035
:00000001FF
