:0300000002001EDD
:03000B000201A54A
:10001B000201BB7580017581507E147589517F007B
:10002B00D2A9D2ABD2AFC23F1201CC748031EB90CC
:10003B00031031C274C21201EB758C3C758ABA7E07
:10004B00147F00758D00758B00D28CD28E303FFDE6
:10005B00C23F8F32858D31858B301200FF12011B11
:10006B002080061200E502003F12007A02003FE5F5
:10007B00477016E5467012E545700BE5447007E5D1
:10008B004370030200D00200B2900300E54711FB5E
:10009B00E54611FB742E1201E5E54511FBE5441114
:1000AB00FB9003320201BD900300E54511FBE544D3
:1000BB0011FBE54311FB742E1201E5E54211FB9098
:1000CB00032B0201BD900300E54211FBE54111FB3F
:1000DB00E54011FB9003210201BDC00190030079A3
:1000EB0047E711FB19B93FF9D0019003210201BD7C
:1000FB00930201E512019B753401783375F004E628
:10010B00B4000418D5F0F87408A4F53EB4004022EE
:10011B00E53C120148854847854946E53B120148B5
:10012B00854845854944E53A120148854843854948
:10013B0042E5391201488548418549402290030028
:10014B00FC54F0C4F548EC540FF549221201661229
:10015B0001755003120183D53EF222783475F004F9
:10016B00C3E636D4F608D5F0F822783375F004C31D
:10017B00E613F618D5F0F922783975F0047934C303
:10018B00E637D4F60809D5F0F7E53C3400F53C2208
:10019B007909E47834F608D9FC22DE0BC28EC28FC3
:1001AB00C28CC28DD23F32B2B7758C3C758ABA32D3
:1001BB000F3274201201E5E493600531E5A380F75B
:1001CB0022743831EB740E31EB740131EB74063160
:1001DB00EB748031EB743C31EB22F590D2A08004B0
:1001EB00F590C2A0D2A27D0131F8C2A2227AE6001C
:0601FB0000DAFCDDF82231
:10030000303132333435363738394142434445464B
:10031000202D467265712E20436F756E7465722DA7
:1003200000487A20202020202020004B487A2020DE
:0903300020004D487A2020200035
:00000001FF
