:03000000020030CB
:03000B000203D617
:03001B000203F7E6
:10003000C230C2A2C2A3710D7120714F71B771C1DC
:10004000D2A478857139E5352430F87144E5362439
:1000500030F87144E5372430F87144115F014211E2
:10006000AC7179717971797179717971797179116D
:10007000B171797179717971797179717971791158
:10008000B67179717971797179717971797179D282
:10009000A27532197169C2A375324B7169D2A2750A
:1000A00032327169C2A3753232716922D2A2C2A3FF
:1000B00022D2A3C2A222C2A3C2A22230B00B30B16C
:1000C0001A30B22930B33880F230B45E30B55230D5
:1000D000B64630B73DD2B0C2B180E030B44F30B593
:1000E0004330B63730B72ED2B1C2B280CE30B44032
:1000F00030B53430B62830B746D2B2C2B380BC3047
:10010000B43A30B53430B62E30B728D2B3C2B002CC
:1001100000BB0201420201490201550201610201D4
:100120006D02017902018502019102019D0201A97E
:100130000201B50201CD0201D90201E50201F1027D
:1001400001C1780171390200BB30B7FD783051042C
:1001500071440200BB30B6FD783151047144020095
:10016000BB30B6FD7832510471440200BB30B6FD9D
:100170007833510471440200BB30B5FD783451042A
:1001800071440200BB30B5FD783551047144020062
:10019000BB30B5FD7836510471440200BB30B4FD6C
:1001A0007837510471440200BB30B4FD78385104F3
:1001B00071440200BB30B4FD78395104714402002F
:1001C000BB30B7FD783D714451450200BB30B7FDEF
:1001D000782B31FD71440200BB30B6FD782D31FD26
:1001E00071440200BB30B5FD782A31FD7144020034
:1001F000BB30B4FD782F31FD71440200BBD2A7C2E1
:10020000A6E8FA2220A71F20A607E89430F9D2A674
:1002100022E875F00A9430FFE9A4AEF0BE005E2F2C
:10022000405BF9D2A62220A607E89430FBD2A62292
:10023000E875F00A9430FFEBA4AEF0BE003F2F400B
:100240003CFBD2A622BA2B0BE9C32B40307D00FC2D
:10025000020280BA2D0BE9C39B40227D00FC020202
:1002600080BA2A0FE98BF0A4AFF0BF002C7D00FC10
:10027000020280E98BF084FCADF002028002029958
:10028000BB002BBA2F2878C0713990039DC37F0023
:10029000EF93F871440F70F82278C071399003AD74
:1002A000C37F00EF93F8714460030F80F6227F64F0
:1002B000C39F4022EC8FF0842430F87144ACF0E509
:1002C000F07F0A8FF0842430F87144E5F02430F890
:1002D0007144BD0026227F0AC3EC9F4014EC8FF0CE
:1002E000842430F87144E5F02430F87144BD000BEB
:1002F00022EC2430F87144BD000122782E7144EDC7
:1003000075F00AA48BF0842430F8714422E4F8F9E3
:10031000FAFBFCFDFEFFF580F590F5A075B0FE221E
:1003200078387139780E71397801713978067139F8
:1003300078807139783C7139228880C2A0D2A1714D
:1003400079C2A1228880D2A0D2A17179C2A12278DB
:1003500001713990038CE493F860057144A380F631
:100360007179717978017139227530647531FFD5F1
:1003700031FDD530F7D532F122753E02753D6475F9
:100380003CFAD53CFDD53DF7D53EF1224443204D06
:100390004F544F5220434F4E54524F4C00455252EF
:1003A0004F523A204449562042592030004F56457A
:1003B00052464C4F572100753496D2AFD2A9D28CF9
:1003C00022758910758B00758D00D2A9D28EC28DD1
:1003D000C28F75A8882220D50DD2D5D29085348CB5
:1003E000758A00C28D32C2D5C29074FFC39534F5B0
:1003F0008C758A00C28D32C28CB2A5E58B75F06413
:1004000084F535E5F075F00A84F536E5F0F537C288
:040410008DC28F32D8
:00000001FF
