:0200000080047A
:1000030002001475A88574FEF5A023B4EFFA02006C
:1000130009FBE5A0B4EB0C120126B4EB0612010AAE
:10002300020108B47710120126B4770A79FC7844E8
:1000330012010A020108B47B10120126B47B0A796B
:10004300FC78AD12010A020108B47D10120126B436
:100053007D0A79FD780A12010A020108B4B7101269
:100063000126B4B70A79FD783412010A020108B4F3
:10007300BB10120126B4BB0A79FD788212010A0271
:100083000108B4BD10120126B4BD0A79FD78C81267
:10009300010A020108B4D710120126B4D70A79FE67
:1000A300780612010A020108B4DB09120126B4DB47
:1000B30003020108B4DD09120126B4DD03020108BD
:1000C300B47E09120126B47E03020108B4BE0912EC
:1000D3000126B4BE03020108B4DE09120126B4DE10
:1000E30003020108B4EE09120126B4EE030201086B
:1000F300B4ED09120126B4ED03020108B4E70612B8
:100103000126B4E700EB32758901D29012011AC2BD
:100113009012011A30B2F3898C888AC28DD28C3046
:080123008DFD227FFFDFFE22AB
:00000001FF
