:100000000C9437000C945F000C945F000C945F001C
:100010000C945F000C945F000C945F000C945F00E4
:100020000C945F000C945F000C945F000C945F00D4
:100030000C945F000C945F000C945F000C945F00C4
:100040000C94B5020C945F000C94CA040C94FC044C
:100050000C945F000C945F000C945F000C945F00A4
:100060000C945F000C945F0075002C057B0011243C
:100070001FBECFEFD8E0DEBFCDBF12E0A0E0B1E001
:10008000E4E3F4E102C005900D92A63DB107D9F773
:1000900024E0A6EDB2E001C01D92A535B207E1F75C
:1000A00010E0CCE6D0E004C02297FE010E94C80711
:1000B000C836D107C9F70E9470050C940D0A0C943C
:1000C000000026E040E855E260E070E083EB93E05A
:1000D0000C94680466EC72E08AED92E00E941B07C3
:1000E0001092D7021092D602089566EC72E08AED63
:1000F00092E00C9405078AED92E00C9497060F931A
:100100001F93CF93DF938091D8029091D9020A97E1
:100110009093E1028093E00206E413E0C9E0D0E0AE
:100120008091D8029091D9020197C817D90764F439
:10013000BE018AED92E00E949107FC018081F801E6
:1001400081938F012196ECCF1092D9021092D802A0
:1001500062E171E083EB93E00E94BD0583EB93E0E5
:100160000E948503892BD1F383EB93E00E949E03C9
:10017000C82F8A31F9F464E171E083EB93E00E94C7
:10018000CA0568EE73E080E090E00E94220366E119
:1001900071E083EB93E00E94BD0580911001909186
:1001A00011010A97DCF46EE972E083EB93E00E94A0
:1001B000BD0514C0682F83EB93E00E94BF0520911A
:1001C000D8023091D902F901EE51FD4FC0832F5F63
:1001D0003F4F3093D9022093D802C0CF60911001D5
:1001E000709111014AE050E083EB93E00E947F069A
:1001F00080911001909111010196909311018093CB
:100200001001DF91CF911F910F910895FF920F93ED
:100210001F93CF93DF9383EB93E00E948503892B99
:1002200009F49DC183EB93E00E949E03F82E682F92
:1002300083EB93E00E94BF058DE0F8127DC16EE173
:1002400071E08AED92E00E947207882331F066E245
:1002500072E083EB93E00E94CA0561E271E08AEDEF
:1002600092E00E947207882331F06AE271E083EB2A
:1002700093E00E94CA0566E371E08AED92E00E9475
:100280007207882331F06DE371E083EB93E00E9405
:10029000CA0567E471E08AED92E00E947207882344
:1002A00031F060E571E083EB93E00E94CA0566E6F9
:1002B00071E08AED92E00E947207882331F06EE6C9
:1002C00071E083EB93E00E94CA0569E771E08AED73
:1002D00092E00E947207882331F061E871E083EBBD
:1002E00093E00E94CA0560E971E08AED92E00E9405
:1002F0007207882331F068E971E083EB93E00E9494
:10030000CA0568EA71E08AED92E00E9472078823CC
:1003100031F060EB71E083EB93E00E94CA0561ED80
:1003200071E08AED92E00E947207882331F066E264
:1003300072E083EB93E00E94CA0566ED71E08AEDFE
:1003400092E00E947207882331F066E272E083EB4C
:1003500093E00E94CA056BED71E08AED92E00E9485
:100360007207882331F066E272E083EB93E00E942B
:10037000CA056CEE71E08AED92E00E947207882354
:1003800031F066E272E083EB93E00E94CA0560EF11
:1003900071E08AED92E00E947207882331F066E2F4
:1003A00072E083EB93E00E94CA0564EF71E08AED8E
:1003B00092E00E947207882331F066E272E083EBDC
:1003C00093E00E94CA056CEF71E08AED92E00E9412
:1003D0007207882331F066E272E083EB93E00E94BB
:1003E000CA0564E072E08AED92E00E9472078823F9
:1003F00031F066E272E083EB93E00E94CA0506E00A
:1004000011E0C0E0D0E0BE018AED92E00E949107C9
:10041000FC01D8018D918D01908198130AC0209123
:10042000D6023091D7022F5F3F4F3093D7022093EF
:10043000D6022196C930D10531F72091D6023091EC
:10044000D7022930310541F40E947F0066E272E054
:1004500083EB93E00E94CA056DE072E08AED92E0C2
:100460000E947207882331F066E172E083EB93E02B
:100470000E94CA0569E272E08AED92E00E9472076A
:10048000882331F062E372E083EB93E00E94CA05B7
:100490006AE572E08AED92E00E947207882331F0EB
:1004A00066E272E083EB93E00E94CA0568E672E0C0
:1004B0008AED92E00E947207882331F066E272E0D2
:1004C00083EB93E00E94CA056CE772E08AED92E04C
:1004D0000E947207882331F066E272E083EB93E0BA
:1004E0000E94CA056EE872E08AED92E00E947207EF
:1004F000882331F066E272E083EB93E00E94CA0544
:1005000060EA72E08AED92E00E947207882331F07F
:1005100066E272E083EB93E00E94CA056AEA72E049
:100520008AED92E00E947207882331F066E272E061
:1005300083EB93E00E94CA056F2D8AED92E00E9442
:100540005F07BDE0FB1202C00E946A008091D802E2
:100550009091D90201969093D9028093D802DF91AD
:10056000CF911F910F91FF9008951F920F920FB698
:100570000F9211242F933F938F939F93AF93BF9329
:100580008091AB039091AC03A091AD03B091AE0309
:100590003091AA0323E0230F2D3720F40196A11DEB
:1005A000B11D05C026E8230F0296A11DB11D2093A1
:1005B000AA038093AB039093AC03A093AD03B093D5
:1005C000AE038091AF039091B003A091B103B091BD
:1005D000B2030196A11DB11D8093AF039093B003A8
:1005E000A093B103B093B203BF91AF919F918F914C
:1005F0003F912F910F900FBE0F901F9018953FB70E
:10060000F8948091AF039091B003A091B103B091A1
:10061000B20326B5A89B05C02F3F19F00196A11D76
:10062000B11D3FBF6627782F892F9A2F620F711D4A
:10063000811D911D42E0660F771F881F991F4A9503
:10064000D1F70895CF92DF92EF92FF92CF93DF938D
:100650006B017C010E94FF02EB01C114D104E10493
:10066000F10489F00E94A3070E94FF026C1B7D0B1E
:10067000683E734090F381E0C81AD108E108F108A0
:10068000C851DC4FEACFDF91CF91FF90EF90DF9020
:10069000CF900895789484B5826084BD84B58160DC
:1006A00084BD85B5826085BD85B5816085BDEEE67A
:1006B000F0E0808181608083E1E8F0E01082808159
:1006C00082608083808181608083E0E8F0E08081C7
:1006D00081608083E1EBF0E0808184608083E0EBE7
:1006E000F0E0808181608083EAE7F0E080818460CF
:1006F000808380818260808380818160808380812B
:10070000806880831092C1000895FC01818D228D44
:1007100090E0805C9F4F821B91098F739927089509
:10072000FC01918D828D981731F0828DE80FF11DBB
:10073000858D90E008958FEF9FEF0895FC01918DD6
:10074000828D981761F0828DDF01A80FB11D5D9633
:100750008C91928D9F5F9F73928F90E008958FEFA1
:100760009FEF089582E295E0892B49F080E090E0C8
:10077000892B29F00E94220581110C940000089514
:10078000FC01848DDF01A80FB11DA35ABF4F2C912E
:10079000848D90E001968F739927848FA689B789FD
:1007A0002C93A089B1898C9180648C93938D848DD6
:1007B000981306C00288F389E02D80818F7D8083A5
:1007C0000895CF93DF93EC01888D8823C9F0EA89DF
:1007D000FB89808185FD05C0A889B9898C9186FD3A
:1007E0000FC00FB607FCF5CF808185FFF2CFA88937
:1007F000B9898C9185FFEDCFCE010E94C003E7CF70
:10080000DF91CF910895CF92DF92FF920F931F93C4
:10081000CF93DF931F92CDB7DEB76C0181E0D60195
:1008200058968C9358975B969C915B975C968C91AD
:100830005C97981307C05096ED91FC915197808179
:1008400085FD2EC0F601038D10E00F5F1F4F0F7363
:100850001127F02EF601848DF81211C00FB607FC97
:10086000F9CFD6015096ED91FC915197808185FF8B
:10087000F1CFC60169830E94C0036981EBCF838DEC
:10088000E80FF11DE35AFF4F6083D6015B960C938E
:100890005B975296ED91FC915397808180620CC0DA
:1008A000D6015696ED91FC91579760835096ED9145
:1008B000FC91519780818064808381E090E00F906B
:1008C000DF91CF911F910F91FF90DF90CF9008950E
:1008D000BF92CF92DF92EF92FF92CF93DF93EC0122
:1008E0006A017B01B22EE889F98982E08083411593
:1008F00081EE580761057105A1F060E079E08DE3B4
:1009000090E0A70196010E94A407215031094109F6
:1009100051095695479537952795211580E1380758
:1009200098F0E889F989108260E874E88EE190E037
:10093000A70196010E94A4072150310941095109DC
:100940005695479537952795EC85FD853083EE853F
:10095000FF852083188EEC89FD89B082EA89FB89A6
:10096000808180618083EA89FB89808188608083BF
:10097000EA89FB89808180688083EA89FB8980819C
:100980008F7D8083DF91CF91FF90EF90DF90CF90AC
:10099000BF9008951F920F920FB60F9211242F93BC
:1009A0008F939F93EF93FF93E091C303F091C40360
:1009B0008081E091C903F091CA0382FD12C0908149
:1009C0008091CC038F5F8F732091CD03821751F0FC
:1009D000E091CC03F0E0ED54FC4F958F8093CC0375
:1009E00001C08081FF91EF919F918F912F910F9086
:1009F0000FBE0F901F9018951F920F920FB60F9277
:100A000011242F933F934F935F936F937F938F9313
:100A10009F93AF93BF93EF93FF9383EB93E00E9479
:100A2000C003FF91EF91BF91AF919F918F917F9103
:100A30006F915F914F913F912F910F900FBE0F904B
:100A40001F90189583EB93E00E94850321E0892B8A
:100A500009F420E0822F08951092B6031092B50396
:100A600088EE93E0A0E0B0E08093B7039093B803E2
:100A7000A093B903B093BA0388EB92E09093B403C8
:100A80008093B30385EC90E09093C0038093BF0301
:100A900084EC90E09093C2038093C10380EC90E0DB
:100AA0009093C4038093C30381EC90E09093C603BA
:100AB0008093C50382EC90E09093C8038093C703B2
:100AC00086EC90E09093CA038093C9031092CC0304
:100AD0001092CD031092CE031092CF030895089583
:100AE0000E944A030E946F050E946100C2EBD3E09E
:100AF0000E9406012097E1F30E94B203F9CFCF9242
:100B0000DF92EF92FF920F931F93CF93DF936C01CD
:100B10007A01EB01E60EF71E00E010E0CE15DF05CE
:100B200061F06991D601ED91FC910190F081E02D89
:100B3000C6010995080F191FF1CFC801DF91CF91A8
:100B40001F910F91FF90EF90DF90CF900895611566
:100B5000710581F0DB010D900020E9F7AD014150F6
:100B60005109461B570BDC01ED91FC910280F3818A
:100B7000E02D099480E090E008950C94A705DC0135
:100B8000ED91FC910190F081E02D099464EC72E00C
:100B90000C94A7050F931F93CF93DF93EC010E9452
:100BA000A7058C01CE010E94C605800F911FDF9121
:100BB000CF911F910F9108958F929F92AF92BF9204
:100BC000CF92DF92EF92FF920F931F93CF93DF9319
:100BD000CDB7DEB7A1970FB6F894DEBF0FBECDBF7D
:100BE0007C01C42EE52FCB01D22E19A221E02D15B8
:100BF00010F02AE0D22E8E010F5D1F4F8D2C912C0C
:100C0000A12CB12C6C2D7E2FA50194010E94A4076C
:100C10008C2DD29E80191124015011098A3014F4B0
:100C2000805D01C0895CF801808321153105410593
:100C3000510521F0C22EE32FCA01E4CFB801C7014C
:100C40000E94A705A1960FB6F894DEBF0FBECDBFD8
:100C5000DF91CF911F910F91FF90EF90DF90CF9098
:100C6000BF90AF909F908F900895CF92DF92EF92B8
:100C7000FF920F931F93CF93DF93EC016A017B01E7
:100C80002115310579F4E881F9810190F081E02D99
:100C9000642FDF91CF911F910F91FF90EF90DF9024
:100CA000CF9009942A303105E9F477FF1AC06DE23C
:100CB0000E94BF058C0144275527BA014C195D09D4
:100CC0006E097F092AE0CE010E94DC05800F911F8A
:100CD000DF91CF911F910F91FF90EF90DF90CF9018
:100CE00008952AE0B701A601CE01DF91CF911F91AF
:100CF0000F91FF90EF90DF90CF900C94DC050F9355
:100D00001F93CF93DF93EC019A01AB01662757FD48
:100D10006095762F0E9435068C01CE010E94C60593
:100D2000800F911FDF91CF911F910F910895FC01CA
:100D3000808191810C946408CF93DF93EC018881CA
:100D40009981009711F00E946408198218821D820F
:100D50001C821B821A82DF91CF9108950F931F93FB
:100D6000CF93DF93EC018B016F5F7F4F8881998177
:100D70000E94F308009731F0998388831B830A83CC
:100D800081E001C080E0DF91CF911F910F91089524
:100D9000CF93DF93EC0188819981892B29F08A8197
:100DA0009B818617970760F4CE010E94AE068823C8
:100DB00041F08C819D81892B19F4E881F9811082A1
:100DC00081E0DF91CF910895EF92FF920F931F93EF
:100DD000CF93DF93EC017B018A01BA010E94C80620
:100DE000811104C0CE010E949C0607C01D830C83A4
:100DF000B701888199810E94CF09CE01DF91CF91FF
:100E00001F910F91FF90EF900895FC0111821082C5
:100E100013821282158214826115710559F0FB014B
:100E200001900020E9F7AF0141505109461B570BD3
:100E30000C94E4060895CF93DF93EC0161157105DE
:100E400061F0FB0101900020E9F7AF014150510929
:100E5000461B570B0E94E40602C00E949C06CE016E
:100E6000DF91CF910895EF92FF920F931F93CF934D
:100E7000DF93EC017B010C811D816115710511F47B
:100E800080E016C04115510591F0040F151FB801FF
:100E90000E94C8068823A1F3288139818C819D8115
:100EA000B701820F931F0E94CF091D830C8381E03D
:100EB000DF91CF911F910F91FF90EF900895CF9305
:100EC000DF9300D0CDB7DEB769831A8241E050E0EE
:100ED000BE016F5F7F4F0E9433070F900F90DF912D
:100EE000CF910895FC0124813581232B31F421E039
:100EF00061157105A1F0FB0108C0FC0180819181A1
:100F00006115710531F421E0FC018081882339F0FD
:100F100005C00E94C60921E0892B09F020E0822F3C
:100F20000895FC01848195816817790720F48081F8
:100F30009181009729F41092500480E594E008957F
:100F4000860F971F08950895A1E21A2EAA1BBB1BB6
:100F5000FD010DC0AA1FBB1FEE1FFF1FA217B30785
:100F6000E407F50720F0A21BB30BE40BF50B661F9B
:100F7000771F881F991F1A9469F76095709580955F
:100F800090959B01AC01BD01CF010895EE0FFF1FAD
:100F90000590F491E02D0994CF93DF938230910571
:100FA00010F482E090E0E0915304F091540420E0CA
:100FB00030E0A0E0B0E0309739F14081518148172E
:100FC0005907B8F04817590771F482819381109737
:100FD00029F013969C938E9312972CC090935404EF
:100FE0008093530427C02115310531F04217530770
:100FF00018F0A901DB0101C0EF019A01BD01DF0179
:101000000280F381E02DD7CF21153105F9F0281B9F
:10101000390B2430310580F48A819B81611571057B
:1010200021F0FB019383828304C090935404809346
:101030005304FE01329644C0FE01E20FF31F819378
:10104000919322503109398328833AC02091510469
:1010500030915204232B41F420910201309103017D
:1010600030935204209351042091000130910101EA
:101070002115310541F42DB73EB74091040150913F
:101080000501241B350BE0915104F0915204E21745
:10109000F307A0F42E1B3F0B2817390778F0AC019B
:1010A0004E5F5F4F2417350748F04E0F5F1F509378
:1010B0005204409351048193919302C0E0E0F0E028
:1010C000CF01DF91CF910895CF93DF93009709F47B
:1010D00087C0FC01329713821282C0915304D091D1
:1010E0005404209781F420813181280F391F809189
:1010F0005104909152048217930779F5F0935204AA
:10110000E09351046DC0DE0120E030E0AE17BF0770
:1011100050F412964D915C9113979D014115510524
:1011200009F1DA01F3CFB383A28340815181840FA7
:10113000951F8A179B0771F48D919C911197840FCD
:10114000951F02969183808312968D919C9113979F
:10115000938382832115310529F4F0935404E0939D
:1011600053043EC0D9011396FC93EE9312974D9110
:101170005D91A40FB51FEA17FB0779F48081918177
:10118000840F951F0296D90111969C938E938281AC
:10119000938113969C938E931297E0E0F0E08A81FE
:1011A0009B81009719F0FE01EC01F9CFCE01029668
:1011B00028813981820F931F20915104309152046C
:1011C0002817390769F4309729F4109254041092C3
:1011D000530402C013821282D0935204C09351046C
:1011E000DF91CF910895A0E0B0E0E9EFF8E00C9432
:1011F000DA09EC01CB01209719F40E94CC07B8C0A2
:10120000FE01E60FF71F9E0122503109E217F30796
:1012100008F4ACC0D9010D911C911197061717075E
:10122000B8F00530110508F49FC0A80144505109D9
:101230004617570708F498C002501109061B170BF0
:10124000019311936D937C93CF010E9464088CC02D
:101250005B01A01AB10A4E01800E911EA0915304A9
:10126000B0915404612C712C60E070E0109709F487
:1012700049C0A815B905C9F5ED90FC901197670113
:1012800042E0C40ED11CCA14DB0478F147018A186D
:101290009B08640142E0C40ED11C1296BC901297C8
:1012A0001396AC91B5E0CB16D10440F0B282A38383
:1012B00091828082D9018D939C9309C00E5F1F4F4C
:1012C0000E0D1F1DF90111830083EB2DFA2F6115FF
:1012D000710531F0DB011396FC93EE93129744C035
:1012E000F0935404E09353043FC06D917C911197A7
:1012F0006616770608F43B01BD0112960D90BC916D
:10130000A02DB4CF609151047091520468157905F5
:10131000E9F468167906D0F440910001509101017A
:101320004115510541F44DB75EB7609104017091CC
:101330000501461B570BE417F507C0F4F093520460
:10134000E0935104F901918380830EC00E94CC0781
:101350007C01009759F0A801BE010E94BD09CE0191
:101360000E946408C70104C0CE0102C080E090E082
:10137000CDB7DEB7EEE00C94F609FB01DC0102C04C
:1013800001900D9241505040D8F70895FB01DC01C7
:101390008D91019080190110D9F3990B0895FB01EB
:1013A000DC0101900D920020E1F708952F923F9209
:1013B0004F925F926F927F928F929F92AF92BF9265
:1013C000CF92DF92EF92FF920F931F93CF93DF9311
:1013D000CDB7DEB7CA1BDB0B0FB6F894DEBF0FBE6E
:1013E000CDBF09942A88398848885F846E847D84BB
:1013F0008C849B84AA84B984C884DF80EE80FD80BD
:101400000C811B81AA81B981CE0FD11D0FB6F89432
:10141000DEBF0FBECDBFED01089510E0CCE6D0E0F9
:1014200004C0FE010E94C8072296CE36D107C9F734
:04143000F894FFCF5E
:1014340000005504800041542B434D47533D220086
:1014440001003E000D002B434D47533A2000415408
:101454000041542B4350494E3F002B4350494E3AD0
:1014640052454144590041542B435351002B43539B
:10147400513A33302C300041542B434F50533F00EA
:101484002B434F50533A302C302C225445504D4F5F
:1014940042494C45220041542B43474D490053498E
:1014A4004D434F4D5F4C74640041542B43474D4DA5
:1014B4000053494D434F4D5F53494D39303044003B
:1014C40041542B4347534E0038363939383830317C
:1014D400323031383930350041542B434E554D00AC
:1014E4002B434E554D3A22222C222B3932333332A0
:1014F40036303632303630222C3132392C372C34D7
:1015040000415445310041544530004154442B3985
:1015140032333332363036323036300041544100C3
:101524004154480041542B434F4C500041542B43E9
:101534004C49500041542B5654533D310041542BD7
:1015440043534D503F002B43534D503A20312C31DF
:1015540036392C302C304F4B0041542B43534353DA
:101564003F002B435343533A20282247534D222C08
:101574002250434350343337222C22435553544F83
:101584004D222C2248455822290041542B435343D1
:10159400533D22484558220041542B43534D503D5E
:1015A40031372C3136372C302C31360041542B4313
:1015B400534D503D312C3136372C302C38004154AA
:1015C4002B434E4D493D312C322C302C302C3000E5
:1015D40041542B434D47463D310041542B434D4725
:1015E400443D31000000000003047F0585039E0391
:1015F4009003E1030D0A006E616E00696E66006F70
:061604007666002E0000D6
:00000001FF
