:10000000758921758DFD759850D28E311674411108
:10001000CB745411CB740D11CB11D3744111CB742B
:100020005411CB742B11CB744311CB744D11CB7481
:100030004711CB744611CB743D11CB743111CB7485
:100040000D11CB11D3744111CB745411CB742B11FE
:10005000CB744311CB744D11CB744711CB74531136
:10006000CB743D11CB742211CB742B11CB7439118D
:10007000CB743111CB743911CB743511CB7434116D
:10008000CB743411CB743311CB743411CB74301165
:10009000CB743011CB743711CB743711CB74221160
:1000A000CB740D11CB11D3744811CB744511CB74A3
:1000B0004C11CB744C11CB744F11CB11D3741A115A
:1000C000CB11D33116314E11D380FEC299F5993040
:1000D00099FD227E0F758C00758A00D28C308DFDC3
:1000E000C28CC28DDEEF22C2A5C2A7D2A67580FF48
:1000F000D2A5E58020E7F0C2A5C2A622F580D2A74E
:10010000C2A6D2A5C2A511E722F580C2A7C2A6D277
:10011000A5C2A511E722740F310974013109740CCD
:1001200031097406310974813109743C3109227432
:1001300038310911E7740E310911E77401310911E1
:10014000E77406310911E77480310911E72274530D
:1001500011FC744511FC744E11FC745411FC742094
:0B01600011FC742011FC742011FC2223
:00000001FF
